{
  "_format": "hh3-artifact-1",
  "contractName": "NetworkManager",
  "sourceName": "contracts/NetworkManager.sol",
  "abi": [
    {
      "inputs": [],
      "stateMutability": "nonpayable",
      "type": "constructor"
    },
    {
      "anonymous": false,
      "inputs": [
        {
          "indexed": true,
          "internalType": "address",
          "name": "memberAddress",
          "type": "address"
        },
        {
          "indexed": false,
          "internalType": "string",
          "name": "x500Name",
          "type": "string"
        }
      ],
      "name": "MemberAdded",
      "type": "event"
    },
    {
      "anonymous": false,
      "inputs": [
        {
          "indexed": true,
          "internalType": "address",
          "name": "memberAddress",
          "type": "address"
        }
      ],
      "name": "MemberRemoved",
      "type": "event"
    },
    {
      "anonymous": false,
      "inputs": [
        {
          "indexed": true,
          "internalType": "address",
          "name": "memberAddress",
          "type": "address"
        }
      ],
      "name": "MemberUpdated",
      "type": "event"
    },
    {
      "anonymous": false,
      "inputs": [
        {
          "indexed": true,
          "internalType": "address",
          "name": "previousOwner",
          "type": "address"
        },
        {
          "indexed": true,
          "internalType": "address",
          "name": "newOwner",
          "type": "address"
        }
      ],
      "name": "OwnershipTransferred",
      "type": "event"
    },
    {
      "inputs": [
        {
          "internalType": "address",
          "name": "memberAddress",
          "type": "address"
        },
        {
          "internalType": "string",
          "name": "x500Name",
          "type": "string"
        },
        {
          "internalType": "bytes",
          "name": "publicKey",
          "type": "bytes"
        },
        {
          "internalType": "uint256",
          "name": "serial",
          "type": "uint256"
        },
        {
          "internalType": "uint16",
          "name": "platformVersion",
          "type": "uint16"
        },
        {
          "internalType": "string",
          "name": "host",
          "type": "string"
        },
        {
          "internalType": "uint16",
          "name": "port",
          "type": "uint16"
        }
      ],
      "name": "addMember",
      "outputs": [],
      "stateMutability": "nonpayable",
      "type": "function"
    },
    {
      "inputs": [],
      "name": "getAllMembers",
      "outputs": [
        {
          "internalType": "address[]",
          "name": "",
          "type": "address[]"
        }
      ],
      "stateMutability": "view",
      "type": "function"
    },
    {
      "inputs": [
        {
          "internalType": "address",
          "name": "memberAddress",
          "type": "address"
        }
      ],
      "name": "getMember",
      "outputs": [
        {
          "components": [
            {
              "internalType": "string",
              "name": "x500Name",
              "type": "string"
            },
            {
              "internalType": "address",
              "name": "memberAddress",
              "type": "address"
            },
            {
              "internalType": "bytes",
              "name": "publicKey",
              "type": "bytes"
            },
            {
              "internalType": "bool",
              "name": "isActive",
              "type": "bool"
            },
            {
              "internalType": "uint256",
              "name": "joinedAt",
              "type": "uint256"
            },
            {
              "internalType": "uint256",
              "name": "lastUpdated",
              "type": "uint256"
            },
            {
              "internalType": "uint256",
              "name": "serial",
              "type": "uint256"
            },
            {
              "internalType": "uint16",
              "name": "platformVersion",
              "type": "uint16"
            },
            {
              "internalType": "string",
              "name": "host",
              "type": "string"
            },
            {
              "internalType": "uint16",
              "name": "port",
              "type": "uint16"
            }
          ],
          "internalType": "struct NetworkManager.NodeMember",
          "name": "",
          "type": "tuple"
        }
      ],
      "stateMutability": "view",
      "type": "function"
    },
    {
      "inputs": [
        {
          "internalType": "address",
          "name": "memberAddress",
          "type": "address"
        }
      ],
      "name": "isMember",
      "outputs": [
        {
          "internalType": "bool",
          "name": "",
          "type": "bool"
        }
      ],
      "stateMutability": "view",
      "type": "function"
    },
    {
      "inputs": [],
      "name": "owner",
      "outputs": [
        {
          "internalType": "address",
          "name": "",
          "type": "address"
        }
      ],
      "stateMutability": "view",
      "type": "function"
    },
    {
      "inputs": [
        {
          "internalType": "address",
          "name": "memberAddress",
          "type": "address"
        }
      ],
      "name": "removeMember",
      "outputs": [],
      "stateMutability": "nonpayable",
      "type": "function"
    },
    {
      "inputs": [],
      "name": "renounceOwnership",
      "outputs": [],
      "stateMutability": "nonpayable",
      "type": "function"
    },
    {
      "inputs": [
        {
          "internalType": "address",
          "name": "newOwner",
          "type": "address"
        }
      ],
      "name": "transferOwnership",
      "outputs": [],
      "stateMutability": "nonpayable",
      "type": "function"
    },
    {
      "inputs": [
        {
          "internalType": "address",
          "name": "memberAddress",
          "type": "address"
        },
        {
          "internalType": "string",
          "name": "x500Name",
          "type": "string"
        },
        {
          "internalType": "bytes",
          "name": "publicKey",
          "type": "bytes"
        },
        {
          "internalType": "uint256",
          "name": "serial",
          "type": "uint256"
        },
        {
          "internalType": "uint16",
          "name": "platformVersion",
          "type": "uint16"
        },
        {
          "internalType": "string",
          "name": "host",
          "type": "string"
        },
        {
          "internalType": "uint16",
          "name": "port",
          "type": "uint16"
        }
      ],
      "name": "updateMemberDetails",
      "outputs": [],
      "stateMutability": "nonpayable",
      "type": "function"
    },
    {
      "inputs": [
        {
          "internalType": "address",
          "name": "memberAddress",
          "type": "address"
        },
        {
          "internalType": "bool",
          "name": "isActive",
          "type": "bool"
        }
      ],
      "name": "updateMemberStatus",
      "outputs": [],
      "stateMutability": "nonpayable",
      "type": "function"
    }
  ],
  "bytecode": "0x608060405234801561001057600080fd5b5061001a3361001f565b61006f565b600080546001600160a01b038381166001600160a01b0319831681178455604051919092169283917f8be0079c531659141344cd1fd0a4f28419497f9722a3daafe3b4186f6b6457e09190a35050565b6113348061007e6000396000f3fe608060405234801561001057600080fd5b506004361061009e5760003560e01c80638da5cb5b116100665780638da5cb5b14610111578063a230c5241461012c578063aa9e61921461016e578063afafd7cb14610181578063f2fde38b1461019457600080fd5b80630b1ca49a146100a35780632ada2596146100b8578063457873c0146100e1578063715018a6146100f45780637c0f6b35146100fc575b600080fd5b6100b66100b1366004610d29565b6101a7565b005b6100cb6100c6366004610d29565b61039f565b6040516100d89190610d91565b60405180910390f35b6100b66100ef366004610e77565b61068d565b6100b661072c565b610104610740565b6040516100d89190610eb3565b6000546040516001600160a01b0390911681526020016100d8565b61015e61013a366004610d29565b6001600160a01b039081166000908152600160208190526040909120015416151590565b60405190151581526020016100d8565b6100b661017c366004610f5b565b6107a2565b6100b661018f366004610f5b565b6108a1565b6100b66101a2366004610d29565b610b9c565b6101af610c15565b6001600160a01b03808216600090815260016020819052604090912001548291166101f55760405162461bcd60e51b81526004016101ec90611033565b60405180910390fd5b6001600160a01b0382166000908152600260205260408120546003805491929161022190600190611062565b8154811061023157610231611089565b600091825260209091200154600380546001600160a01b03909216925082918490811061026057610260611089565b600091825260208083209190910180546001600160a01b0319166001600160a01b03948516179055918316815260029091526040902082905560038054806102aa576102aa61109f565b60008281526020808220830160001990810180546001600160a01b03191690559092019092556001600160a01b038616825260028152604080832083905560019091528120906102fa8282610cbf565b6001820180546001600160a01b031916905561031a600283016000610cbf565b60038201805460ff19169055600060048301819055600583018190556006830181905560078301805461ffff19169055610358906008840190610cbf565b50600901805461ffff191690556040516001600160a01b038516907f6e76fb4c77256006d9c38ec7d82b45a8c8f3c27b1d6766fffc42dfb8de68449290600090a250505050565b6104086040518061014001604052806060815260200160006001600160a01b0316815260200160608152602001600015158152602001600081526020016000815260200160008152602001600061ffff16815260200160608152602001600061ffff1681525090565b6001600160a01b03808316600090815260016020819052604090912001548391166104455760405162461bcd60e51b81526004016101ec90611033565b6001600160a01b0383166000908152600160205260409081902081516101408101909252805482908290610478906110b5565b80601f01602080910402602001604051908101604052809291908181526020018280546104a4906110b5565b80156104f15780601f106104c6576101008083540402835291602001916104f1565b820191906000526020600020905b8154815290600101906020018083116104d457829003601f168201915b505050918352505060018201546001600160a01b03166020820152600282018054604090920191610521906110b5565b80601f016020809104026020016040519081016040528092919081815260200182805461054d906110b5565b801561059a5780601f1061056f5761010080835404028352916020019161059a565b820191906000526020600020905b81548152906001019060200180831161057d57829003601f168201915b5050509183525050600382015460ff1615156020820152600482015460408201526005820154606082015260068201546080820152600782015461ffff1660a082015260088201805460c0909201916105f2906110b5565b80601f016020809104026020016040519081016040528092919081815260200182805461061e906110b5565b801561066b5780601f106106405761010080835404028352916020019161066b565b820191906000526020600020905b81548152906001019060200180831161064e57829003601f168201915b50505091835250506009919091015461ffff1660209091015291505b50919050565b610695610c15565b6001600160a01b03808316600090815260016020819052604090912001548391166106d25760405162461bcd60e51b81526004016101ec90611033565b6001600160a01b03831660008181526001602052604080822060038101805460ff191687151517905542600590910155517fc849ff69d29483b688b050076f9d03b1a618c93ea052a712bfd3224eb71da8e29190a2505050565b610734610c15565b61073e6000610c6f565b565b6060600380548060200260200160405190810160405280929190818152602001828054801561079857602002820191906000526020600020905b81546001600160a01b0316815260019091019060200180831161077a575b5050505050905090565b6107aa610c15565b6001600160a01b03808b16600090815260016020819052604090912001548b91166107e75760405162461bcd60e51b81526004016101ec90611033565b6001600160a01b038b1660009081526001602052604090208061080b8b8d8361114e565b506002810161081b898b8361114e565b506006810187905560078101805461ffff191661ffff88161790556008810161084585878361114e565b5060098101805461ffff191661ffff85161790554260058201556040516001600160a01b038d16907fc849ff69d29483b688b050076f9d03b1a618c93ea052a712bfd3224eb71da8e290600090a2505050505050505050505050565b6108a9610c15565b6001600160a01b03808b16600090815260016020819052604090912001548b91161561090f5760405162461bcd60e51b81526020600482015260156024820152744d656d62657220616c72656164792065786973747360581b60448201526064016101ec565b604080516101606020601f8d01819004028201810190925261014081018b81526000928291908e908e90819085018382808284376000920191909152505050908252506001600160a01b038e1660208083019190915260408051601f8d0183900483028101830182528c8152920191908c908c908190840183828082843760009201919091525050509082525060016020808301919091524260408084018290526060840191909152608083018b905261ffff8a1660a08401528051601f890183900483028101830190915287815260c090920191908890889081908401838280828437600092018290525093855250505061ffff86166020928301526001600160a01b038f168152600190915260409020815191925082918190610a34908261120f565b5060208201516001820180546001600160a01b0319166001600160a01b0390921691909117905560408201516002820190610a6f908261120f565b50606082015160038201805460ff19169115159190911790556080820151600482015560a0820151600582015560c0820151600682015560e082015160078201805461ffff191661ffff9092169190911790556101008201516008820190610ad7908261120f565b5061012091909101516009909101805461ffff191661ffff909216919091179055600380546001600160a01b038e166000818152600260205260408082208490556001840185559390527fc2575a0e9e593c00f959f8c92f12db2869c3395a3b0502d05e2516446f71f85b90910180546001600160a01b0319168217905590517f5660dfedd5f2d238aa153a2c488e927eb29ea0e780d70089f0e90c7409a2079c90610b86908e908e906112cf565b60405180910390a2505050505050505050505050565b610ba4610c15565b6001600160a01b038116610c095760405162461bcd60e51b815260206004820152602660248201527f4f776e61626c653a206e6577206f776e657220697320746865207a65726f206160448201526564647265737360d01b60648201526084016101ec565b610c1281610c6f565b50565b6000546001600160a01b0316331461073e5760405162461bcd60e51b815260206004820181905260248201527f4f776e61626c653a2063616c6c6572206973206e6f7420746865206f776e657260448201526064016101ec565b600080546001600160a01b038381166001600160a01b0319831681178455604051919092169283917f8be0079c531659141344cd1fd0a4f28419497f9722a3daafe3b4186f6b6457e09190a35050565b508054610ccb906110b5565b6000825580601f10610cdb575050565b601f016020900490600052602060002090810190610c1291905b80821115610d095760008155600101610cf5565b5090565b80356001600160a01b0381168114610d2457600080fd5b919050565b600060208284031215610d3b57600080fd5b610d4482610d0d565b9392505050565b6000815180845260005b81811015610d7157602081850181015186830182015201610d55565b506000602082860101526020601f19601f83011685010191505092915050565b6020815260008251610140806020850152610db0610160850183610d4b565b91506020850151610dcc60408601826001600160a01b03169052565b506040850151601f1980868503016060870152610de98483610d4b565b935060608701519150610e00608087018315159052565b608087015160a087015260a087015160c087015260c087015160e087015260e08701519150610100610e378188018461ffff169052565b80880151925050610120818786030181880152610e548584610d4b565b94508088015192505050610e6d8286018261ffff169052565b5090949350505050565b60008060408385031215610e8a57600080fd5b610e9383610d0d565b915060208301358015158114610ea857600080fd5b809150509250929050565b6020808252825182820181905260009190848201906040850190845b81811015610ef45783516001600160a01b031683529284019291840191600101610ecf565b50909695505050505050565b60008083601f840112610f1257600080fd5b50813567ffffffffffffffff811115610f2a57600080fd5b602083019150836020828501011115610f4257600080fd5b9250929050565b803561ffff81168114610d2457600080fd5b60008060008060008060008060008060e08b8d031215610f7a57600080fd5b610f838b610d0d565b995060208b013567ffffffffffffffff80821115610fa057600080fd5b610fac8e838f01610f00565b909b50995060408d0135915080821115610fc557600080fd5b610fd18e838f01610f00565b909950975060608d01359650879150610fec60808e01610f49565b955060a08d013591508082111561100257600080fd5b5061100f8d828e01610f00565b9094509250611022905060c08c01610f49565b90509295989b9194979a5092959850565b60208082526015908201527413595b58995c88191bd95cc81b9bdd08195e1a5cdd605a1b604082015260600190565b8181038181111561108357634e487b7160e01b600052601160045260246000fd5b92915050565b634e487b7160e01b600052603260045260246000fd5b634e487b7160e01b600052603160045260246000fd5b600181811c908216806110c957607f821691505b60208210810361068757634e487b7160e01b600052602260045260246000fd5b634e487b7160e01b600052604160045260246000fd5b601f82111561114957600081815260208120601f850160051c810160208610156111265750805b601f850160051c820191505b8181101561114557828155600101611132565b5050505b505050565b67ffffffffffffffff831115611166576111666110e9565b61117a8361117483546110b5565b836110ff565b6000601f8411600181146111ae57600085156111965750838201355b600019600387901b1c1916600186901b178355611208565b600083815260209020601f19861690835b828110156111df57868501358255602094850194600190920191016111bf565b50868210156111fc5760001960f88860031b161c19848701351681555b505060018560011b0183555b5050505050565b815167ffffffffffffffff811115611229576112296110e9565b61123d8161123784546110b5565b846110ff565b602080601f831160018114611272576000841561125a5750858301515b600019600386901b1c1916600185901b178555611145565b600085815260208120601f198616915b828110156112a157888601518255948401946001909101908401611282565b50858210156112bf5787850151600019600388901b60f8161c191681555b5050505050600190811b01905550565b60208152816020820152818360408301376000818301604090810191909152601f909201601f1916010191905056fea26469706673582212206154ab3d32ddbcc4a3ab54ab50cc82bd019a50b846bd7a375a85e8649a59d0a264736f6c63430008130033",
  "linkReferences": {},
  "deployedLinkReferences": {},
  "immutableReferences": {},
  "inputSourceName": "project/contracts/NetworkManager.sol",
  "buildInfoId": "solc-0_8_19-51e77c17e658c72cbf858e3ae8b5a43eba0ee3d1"
}