{
  "_format": "hh3-artifact-1",
  "contractName": "NetworkManager",
  "sourceName": "contracts/NetworkManager.sol",
  "abi": [
    {
      "inputs": [],
      "stateMutability": "nonpayable",
      "type": "constructor"
    },
    {
      "anonymous": false,
      "inputs": [
        {
          "indexed": true,
          "internalType": "address",
          "name": "memberAddress",
          "type": "address"
        },
        {
          "indexed": false,
          "internalType": "string",
          "name": "x500Name",
          "type": "string"
        },
        {
          "indexed": false,
          "internalType": "bytes",
          "name": "certSerialHex",
          "type": "bytes"
        }
      ],
      "name": "MemberAdded",
      "type": "event"
    },
    {
      "anonymous": false,
      "inputs": [
        {
          "indexed": true,
          "internalType": "address",
          "name": "memberAddress",
          "type": "address"
        }
      ],
      "name": "MemberRemoved",
      "type": "event"
    },
    {
      "anonymous": false,
      "inputs": [
        {
          "indexed": true,
          "internalType": "address",
          "name": "memberAddress",
          "type": "address"
        }
      ],
      "name": "MemberUpdated",
      "type": "event"
    },
    {
      "anonymous": false,
      "inputs": [
        {
          "indexed": true,
          "internalType": "address",
          "name": "previousOwner",
          "type": "address"
        },
        {
          "indexed": true,
          "internalType": "address",
          "name": "newOwner",
          "type": "address"
        }
      ],
      "name": "OwnershipTransferred",
      "type": "event"
    },
    {
      "inputs": [
        {
          "internalType": "address",
          "name": "memberAddress",
          "type": "address"
        },
        {
          "internalType": "string",
          "name": "x500Name",
          "type": "string"
        },
        {
          "internalType": "bytes",
          "name": "certSerialHex",
          "type": "bytes"
        },
        {
          "internalType": "uint16",
          "name": "platformVersion",
          "type": "uint16"
        },
        {
          "internalType": "string",
          "name": "host",
          "type": "string"
        },
        {
          "internalType": "uint16",
          "name": "port",
          "type": "uint16"
        }
      ],
      "name": "addMember",
      "outputs": [],
      "stateMutability": "nonpayable",
      "type": "function"
    },
    {
      "inputs": [],
      "name": "getAllMembers",
      "outputs": [
        {
          "internalType": "address[]",
          "name": "",
          "type": "address[]"
        }
      ],
      "stateMutability": "view",
      "type": "function"
    },
    {
      "inputs": [
        {
          "internalType": "address",
          "name": "memberAddress",
          "type": "address"
        }
      ],
      "name": "getMember",
      "outputs": [
        {
          "components": [
            {
              "internalType": "string",
              "name": "x500Name",
              "type": "string"
            },
            {
              "internalType": "address",
              "name": "memberAddress",
              "type": "address"
            },
            {
              "internalType": "bytes",
              "name": "certSerialHex",
              "type": "bytes"
            },
            {
              "internalType": "bool",
              "name": "isActive",
              "type": "bool"
            },
            {
              "internalType": "uint256",
              "name": "joinedAt",
              "type": "uint256"
            },
            {
              "internalType": "uint256",
              "name": "lastUpdated",
              "type": "uint256"
            },
            {
              "internalType": "uint16",
              "name": "platformVersion",
              "type": "uint16"
            },
            {
              "internalType": "string",
              "name": "host",
              "type": "string"
            },
            {
              "internalType": "uint16",
              "name": "port",
              "type": "uint16"
            }
          ],
          "internalType": "struct NetworkManager.NodeMember",
          "name": "",
          "type": "tuple"
        }
      ],
      "stateMutability": "view",
      "type": "function"
    },
    {
      "inputs": [
        {
          "internalType": "address",
          "name": "memberAddress",
          "type": "address"
        }
      ],
      "name": "isMember",
      "outputs": [
        {
          "internalType": "bool",
          "name": "",
          "type": "bool"
        }
      ],
      "stateMutability": "view",
      "type": "function"
    },
    {
      "inputs": [],
      "name": "owner",
      "outputs": [
        {
          "internalType": "address",
          "name": "",
          "type": "address"
        }
      ],
      "stateMutability": "view",
      "type": "function"
    },
    {
      "inputs": [
        {
          "internalType": "address",
          "name": "memberAddress",
          "type": "address"
        }
      ],
      "name": "removeMember",
      "outputs": [],
      "stateMutability": "nonpayable",
      "type": "function"
    },
    {
      "inputs": [],
      "name": "renounceOwnership",
      "outputs": [],
      "stateMutability": "nonpayable",
      "type": "function"
    },
    {
      "inputs": [
        {
          "internalType": "address",
          "name": "newOwner",
          "type": "address"
        }
      ],
      "name": "transferOwnership",
      "outputs": [],
      "stateMutability": "nonpayable",
      "type": "function"
    },
    {
      "inputs": [
        {
          "internalType": "address",
          "name": "memberAddress",
          "type": "address"
        },
        {
          "internalType": "string",
          "name": "x500Name",
          "type": "string"
        },
        {
          "internalType": "bytes",
          "name": "certSerialHex",
          "type": "bytes"
        },
        {
          "internalType": "uint16",
          "name": "platformVersion",
          "type": "uint16"
        },
        {
          "internalType": "string",
          "name": "host",
          "type": "string"
        },
        {
          "internalType": "uint16",
          "name": "port",
          "type": "uint16"
        }
      ],
      "name": "updateMemberDetails",
      "outputs": [],
      "stateMutability": "nonpayable",
      "type": "function"
    },
    {
      "inputs": [
        {
          "internalType": "address",
          "name": "memberAddress",
          "type": "address"
        },
        {
          "internalType": "bool",
          "name": "isActive",
          "type": "bool"
        }
      ],
      "name": "updateMemberStatus",
      "outputs": [],
      "stateMutability": "nonpayable",
      "type": "function"
    }
  ],
  "bytecode": "0x608060405234801561001057600080fd5b5061001a3361001f565b61006f565b600080546001600160a01b038381166001600160a01b0319831681178455604051919092169283917f8be0079c531659141344cd1fd0a4f28419497f9722a3daafe3b4186f6b6457e09190a35050565b6113018061007e6000396000f3fe608060405234801561001057600080fd5b506004361061009e5760003560e01c80638da5cb5b116100665780638da5cb5b14610111578063a12e0ec91461012c578063a230c5241461013f578063f2fde38b14610181578063fb7ed1111461019457600080fd5b80630b1ca49a146100a35780632ada2596146100b8578063457873c0146100e1578063715018a6146100f45780637c0f6b35146100fc575b600080fd5b6100b66100b1366004610ce0565b6101a7565b005b6100cb6100c6366004610ce0565b610398565b6040516100d89190610d48565b60405180910390f35b6100b66100ef366004610e22565b61065b565b6100b66106fa565b61010461070e565b6040516100d89190610e5e565b6000546040516001600160a01b0390911681526020016100d8565b6100b661013a366004610f06565b610770565b61017161014d366004610ce0565b6001600160a01b039081166000908152600160208190526040909120015416151590565b60405190151581526020016100d8565b6100b661018f366004610ce0565b610867565b6100b66101a2366004610f06565b6108e0565b6101af610bcc565b6001600160a01b03808216600090815260016020819052604090912001548291166101f55760405162461bcd60e51b81526004016101ec90610fd4565b60405180910390fd5b6001600160a01b0382166000908152600260205260408120546003805491929161022190600190611003565b815481106102315761023161102a565b600091825260209091200154600380546001600160a01b0390921692508291849081106102605761026061102a565b600091825260208083209190910180546001600160a01b0319166001600160a01b03948516179055918316815260029091526040902082905560038054806102aa576102aa611040565b60008281526020808220830160001990810180546001600160a01b03191690559092019092556001600160a01b038616825260028152604080832083905560019091528120906102fa8282610c76565b6001820180546001600160a01b031916905561031a600283016000610c76565b60038201805460ff191690556000600483018190556005830181905560068301805461ffff19169055610351906007840190610c76565b50600801805461ffff191690556040516001600160a01b038516907f6e76fb4c77256006d9c38ec7d82b45a8c8f3c27b1d6766fffc42dfb8de68449290600090a250505050565b604080516101208101825260608082526000602083018190529282018190528082018390526080820183905260a0820183905260c0820183905260e08201526101008101919091526001600160a01b038083166000908152600160208190526040909120015483911661041d5760405162461bcd60e51b81526004016101ec90610fd4565b6001600160a01b038316600090815260016020526040908190208151610120810190925280548290829061045090611056565b80601f016020809104026020016040519081016040528092919081815260200182805461047c90611056565b80156104c95780601f1061049e576101008083540402835291602001916104c9565b820191906000526020600020905b8154815290600101906020018083116104ac57829003601f168201915b505050918352505060018201546001600160a01b031660208201526002820180546040909201916104f990611056565b80601f016020809104026020016040519081016040528092919081815260200182805461052590611056565b80156105725780601f1061054757610100808354040283529160200191610572565b820191906000526020600020905b81548152906001019060200180831161055557829003601f168201915b5050509183525050600382015460ff16151560208201526004820154604082015260058201546060820152600682015461ffff16608082015260078201805460a0909201916105c090611056565b80601f01602080910402602001604051908101604052809291908181526020018280546105ec90611056565b80156106395780601f1061060e57610100808354040283529160200191610639565b820191906000526020600020905b81548152906001019060200180831161061c57829003601f168201915b50505091835250506008919091015461ffff1660209091015291505b50919050565b610663610bcc565b6001600160a01b03808316600090815260016020819052604090912001548391166106a05760405162461bcd60e51b81526004016101ec90610fd4565b6001600160a01b03831660008181526001602052604080822060038101805460ff191687151517905542600590910155517fc849ff69d29483b688b050076f9d03b1a618c93ea052a712bfd3224eb71da8e29190a2505050565b610702610bcc565b61070c6000610c26565b565b6060600380548060200260200160405190810160405280929190818152602001828054801561076657602002820191906000526020600020905b81546001600160a01b03168152600190910190602001808311610748575b5050505050905090565b610778610bcc565b6001600160a01b03808a16600090815260016020819052604090912001548a91166107b55760405162461bcd60e51b81526004016101ec90610fd4565b6001600160a01b038a166000908152600160205260409020806107d98a8c836110ef565b50600281016107e9888a836110ef565b5060068101805461ffff191661ffff88161790556007810161080c8587836110ef565b5060088101805461ffff191661ffff85161790554260058201556040516001600160a01b038c16907fc849ff69d29483b688b050076f9d03b1a618c93ea052a712bfd3224eb71da8e290600090a25050505050505050505050565b61086f610bcc565b6001600160a01b0381166108d45760405162461bcd60e51b815260206004820152602660248201527f4f776e61626c653a206e6577206f776e657220697320746865207a65726f206160448201526564647265737360d01b60648201526084016101ec565b6108dd81610c26565b50565b6108e8610bcc565b6001600160a01b03808a16600090815260016020819052604090912001548a91161561094e5760405162461bcd60e51b81526020600482015260156024820152744d656d62657220616c72656164792065786973747360581b60448201526064016101ec565b604080516101406020601f8c01819004028201810190925261012081018a81526000928291908d908d90819085018382808284376000920191909152505050908252506001600160a01b038d1660208083019190915260408051601f8c0183900483028101830182528b8152920191908b908b90819084018382808284376000920191909152505050908252506001602080830191909152426040808401829052606084019190915261ffff8a1660808401528051601f890183900483028101830190915287815260a090920191908890889081908401838280828437600092018290525093855250505061ffff86166020928301526001600160a01b038e168152600190915260409020815191925082918190610a6c90826111b0565b5060208201516001820180546001600160a01b0319166001600160a01b0390921691909117905560408201516002820190610aa790826111b0565b50606082015160038201805460ff19169115159190911790556080820151600482015560a0820151600582015560c082015160068201805461ffff191661ffff90921691909117905560e08201516007820190610b0490826111b0565b5061010091909101516008909101805461ffff191661ffff909216919091179055600380546001600160a01b038d166000818152600260205260408082208490556001840185559390527fc2575a0e9e593c00f959f8c92f12db2869c3395a3b0502d05e2516446f71f85b90910180546001600160a01b0319168217905590517fe203e3faca219fdac530c43a9fb0555778c2e9e8623c742f7bf33b5bea183c2190610bb7908d908d908d908d90611299565b60405180910390a25050505050505050505050565b6000546001600160a01b0316331461070c5760405162461bcd60e51b815260206004820181905260248201527f4f776e61626c653a2063616c6c6572206973206e6f7420746865206f776e657260448201526064016101ec565b600080546001600160a01b038381166001600160a01b0319831681178455604051919092169283917f8be0079c531659141344cd1fd0a4f28419497f9722a3daafe3b4186f6b6457e09190a35050565b508054610c8290611056565b6000825580601f10610c92575050565b601f0160209004906000526020600020908101906108dd91905b80821115610cc05760008155600101610cac565b5090565b80356001600160a01b0381168114610cdb57600080fd5b919050565b600060208284031215610cf257600080fd5b610cfb82610cc4565b9392505050565b6000815180845260005b81811015610d2857602081850181015186830182015201610d0c565b506000602082860101526020601f19601f83011685010191505092915050565b6020815260008251610120806020850152610d67610140850183610d02565b91506020850151610d8360408601826001600160a01b03169052565b506040850151601f1980868503016060870152610da08483610d02565b935060608701519150610db7608087018315159052565b608087015160a087015260a087015160c087015260c08701519150610de260e087018361ffff169052565b60e08701519150610100818786030181880152610dff8584610d02565b94508088015192505050610e188286018261ffff169052565b5090949350505050565b60008060408385031215610e3557600080fd5b610e3e83610cc4565b915060208301358015158114610e5357600080fd5b809150509250929050565b6020808252825182820181905260009190848201906040850190845b81811015610e9f5783516001600160a01b031683529284019291840191600101610e7a565b50909695505050505050565b60008083601f840112610ebd57600080fd5b50813567ffffffffffffffff811115610ed557600080fd5b602083019150836020828501011115610eed57600080fd5b9250929050565b803561ffff81168114610cdb57600080fd5b600080600080600080600080600060c08a8c031215610f2457600080fd5b610f2d8a610cc4565b985060208a013567ffffffffffffffff80821115610f4a57600080fd5b610f568d838e01610eab565b909a50985060408c0135915080821115610f6f57600080fd5b610f7b8d838e01610eab565b9098509650869150610f8f60608d01610ef4565b955060808c0135915080821115610fa557600080fd5b50610fb28c828d01610eab565b9094509250610fc5905060a08b01610ef4565b90509295985092959850929598565b60208082526015908201527413595b58995c88191bd95cc81b9bdd08195e1a5cdd605a1b604082015260600190565b8181038181111561102457634e487b7160e01b600052601160045260246000fd5b92915050565b634e487b7160e01b600052603260045260246000fd5b634e487b7160e01b600052603160045260246000fd5b600181811c9082168061106a57607f821691505b60208210810361065557634e487b7160e01b600052602260045260246000fd5b634e487b7160e01b600052604160045260246000fd5b601f8211156110ea57600081815260208120601f850160051c810160208610156110c75750805b601f850160051c820191505b818110156110e6578281556001016110d3565b5050505b505050565b67ffffffffffffffff8311156111075761110761108a565b61111b836111158354611056565b836110a0565b6000601f84116001811461114f57600085156111375750838201355b600019600387901b1c1916600186901b1783556111a9565b600083815260209020601f19861690835b828110156111805786850135825560209485019460019092019101611160565b508682101561119d5760001960f88860031b161c19848701351681555b505060018560011b0183555b5050505050565b815167ffffffffffffffff8111156111ca576111ca61108a565b6111de816111d88454611056565b846110a0565b602080601f83116001811461121357600084156111fb5750858301515b600019600386901b1c1916600185901b1785556110e6565b600085815260208120601f198616915b8281101561124257888601518255948401946001909101908401611223565b50858210156112605787850151600019600388901b60f8161c191681555b5050505050600190811b01905550565b81835281816020850137506000828201602090810191909152601f909101601f19169091010190565b6040815260006112ad604083018688611270565b82810360208401526112c0818587611270565b97965050505050505056fea26469706673582212204587ba03a76b27e4c115cd742a11057833a9d0beea8e43891c1c018bbf0be35364736f6c63430008130033",
  "linkReferences": {},
  "deployedLinkReferences": {},
  "immutableReferences": {},
  "inputSourceName": "project/contracts/NetworkManager.sol",
  "buildInfoId": "solc-0_8_19-c0885403532b4b3bd28592cb2086e0af11cc8484"
}